:10000000007C0020151100005D0400005904000070
:1000100000000000000000000000000000000000E0
:100020000000000000000000000000005504000077
:10003000000000000000000051040000D503000093
:1000400010B5064C2378002B07D1054B002B02D0AE
:10005000044800E000BF0123237010BD5C000020B5
:10006000000000009C190000044B10B5002B03D0C9
:100070000349044800E000BF10BDC0460000000076
:10008000600000209C190000024B187E4007C00F42
:100090007047C046001C004210B5FFF7F5FF00286E
:1000A000FBD0074B1A00197E4907FCD5598BC907AD
:1000B00003D4598B890700D45B8B108DC0B210BD5F
:1000C000001C0042F8B5002506000F002C00FFF7C9
:1000D000E3FF114A1378002B1CD1FF21230A0140B2
:1000E0004B4021020D4C5B001C5B53884C40A4B27A
:1000F000002B02D11279002A06D030700136802FF1
:1001000002D1054A013B53800135ADB2AF42DED189
:100110002000F8BD0124FBE7780000204C17000008
:1001200010B50400FFF7B8FF2070012010BD044B8C
:10013000C0B21A7ED207FCD580B218850120704764
:10014000001C00420023F0B52E4D85B007002B7037
:10015000994211D1013364242B714320FFF7E7FF4B
:10016000294EFFF791FF00280AD1002E06D1013C4D
:10017000002CF2D120000DE06980ECE7013EF0E7B1
:10018000002EF4D00126FFF787FF2B78002B03D039
:100190000020287005B0F0BDFF231840012805D0CD
:1001A00004282CD0002301202B71F3E7022103A89F
:1001B000FFF788FF80213800FFF784FF0190FFF7E9
:1001C0006BFF000284B2FFF767FF019B2418A4B203
:1001D000A34209D102AB1B79B34205D1F34302AA72
:1001E0005279DBB29A4203D01820FFF7A0FFD9E77B
:1001F00006200136FFF79BFFF6B28037C3E70620E3
:10020000F3E7C0467800002000350C000023F0B56D
:10021000394D85B003900C002B70994253D10133B6
:100220002B717F231C4201D080349C43FFF734FFA5
:100230002B78002B03D000232B70FFF72DFFC0B2CB
:10024000432803D071283CD01528EFD10123019316
:100250000120FFF76CFF0198FFF769FF019B8025E4
:10026000D8430027C0B2FFF762FF039B0293224AE4
:100270005388002B02D11679002E06D00299013B3B
:1002800053800B000E78013302933000FFF74FFFCD
:100290003B0A5E40194B7600F65A3F027E4036B26A
:1002A000013DB7B2002DE2D1380AFFF740FFF0B2AE
:1002B000FFF73DFFFFF7F0FE0F4E3378002B04D021
:1002C0003570002016E06980AAE7FF231840062851
:1002D00007D1019B803C0133DBB20193039B803348
:1002E0000393002CB4D10420FFF721FFFFF7D4FEC5
:1002F0000120347105B0F0BD780000204C170000DB
:1003000070B504000D004618B44201D1280070BD3C
:100310002078FFF70CFF0134F6E7030010B5080062
:10032000110098476422014BDA8010BD780000204C
:10033000094B30B5D96898601B69084A084C9B0086
:10034000814200D830BD4508D5611480157DED0788
:10035000FCD5C018F4E7C0467800002000400041FA
:1003600002A5FFFFF0B5194B0A00197D85B09C6905
:10037000002929D0042A1FD100680F2630275200F7
:1003800004AB9B180B3B9D1A01003140092919D879
:1003900039431970013B00099D42F5D10A200C4BED
:1003A00001A90B808B1898700330D8700432E06874
:1003B000FFF7B3FF05B0F0BD022A01D10088DCE7EA
:1003C0000078DAE73731E4E70100F0E77800002051
:1003D000307800001B4A1C4B117F002908D1197886
:1003E000587809188020C9B2597018494003C8616B
:1003F000117F0131C9B211775978F02902D85978A3
:10040000092908D81978494249B2197019785878D9
:100410000918C9B25970117F5B78994203D18021C4
:100420000A4B4903D961D388002B03D0D388013B01
:100430009BB2D380D38B002B03D0D38B013B9BB2D9
:10044000D383704778000020000000200044004162
:1004500002BEFEE705BEFEE70DBEFEE70EBEFEE7EE
:1004600010230249CA681A42FCD0704700080040B5
:10047000024A53785BB2002BFBDB7047000C004054
:10048000074AFF3053699B0B9B035361022303729E
:100490008279823B13438371037A9B07FCD57047B3
:1004A0003403002003210A4B01405A68094809041B
:1004B00010400843084A5860D8694007C00F00D16F
:1004C0007047013A002AF7D101204042F8E7C046C0
:1004D00000080042FFFFFCFF52C30000F8B52C4D9E
:1004E0002C4B29005A1CD27F2B485200D4B26A8B65
:1004F0009206920F012A04D06A8B9206920F022A6A
:1005000019D14A6AD20AD20222434A620A7ED2072B
:100510001AD54A8B5207D20F10D1981CC47F0127DD
:100520001000002C14D1002801D00233DC77032006
:10053000FFF7B8FF06E00138821CD8D10320FFF78F
:10054000B1FF02242000F8BD0138821CDED1F5E79E
:10055000124D134E555D3570124D0E7EF60707D5C0
:100560004D8B01326D0706D4013CE4B23800D8E768
:10057000013D002D08D1002801D00233DC77032093
:10058000FFF790FF0324DDE74E8BF607E5D5F2E792
:10059000000800427800002050C300009A000020AC
:1005A0002808004252C3000010B56B24064B5A1CA9
:1005B000D4771A00693C223202331070DC77517014
:1005C000FFF78CFF200010BD780000206B2210B5D3
:1005D000274C631CDA77A31C6A3ADA7723002233AC
:1005E0001870FFF77BFF0023984232D1631DD87744
:1005F0002048214A0300418B8906890F01291ED119
:10060000D720596AC90AC90201435962197E89076C
:1006100021D55A8B52071AD40121621DD1771A7E37
:100620009207FCD5154A03201178A21DD1778022AC
:100630005968D2020A435A60FFF734FF07E0418B42
:100640008906890F0229DBD0013A911CD3D10634E7
:10065000E37F180010BD013A911CF8D0197EC9073C
:10066000D4D5C022596892020A435A60EFE7C046C7
:10067000780000200008004250C300002808004213
:1006800018220823F0B591B000AFBA18D1180B00AA
:10069000B34A31CA31C331CA31C311CA11C3B14AD5
:1006A000B14D93685B035B0F9B005B582B619168B6
:1006B00089B24B43EB60138BE91DDB05DB0FCB7776
:1006C00000232900AB622C317A330B707A617B6096
:1006D000A54C40212000A3692D301B6998470028B4
:1006E00001D06423E38323002D3363670023206755
:1006F000A3679D4CA36F226F9342E9D2636F1B786F
:10070000FF2B57D0232B00D0B6E1237D002B05D043
:10071000A36902229549D868FFF7FFFD23002C3317
:100720001B78532B50D1236FA16F8B421DD9606F63
:10073000E26F01310130F8606067B960A1675B1A50
:100740008B4E93423ED233603368F9681A00A06A38
:100750003B6100F09DFF3A69BB6894466344A36720
:10076000FB68634463673B7C3371AB6FE96F013BAC
:10077000AB676B6F013B6B677D4B1B798B4208D27C
:10078000C91AAB69A86A9B699847002801D06423FD
:10079000EB83C046744B39791A002C321170002259
:1007A000DA671A7D002A05D09B6901227149D86851
:1007B000FFF7B3FD6C4B9A6F01329A675A6F0132A3
:1007C0005A6796E73260BFE7522B10D1E31DDB7FFB
:1007D000002B05D0684BA26A9A4201D8674BA362EE
:1007E000A369E26FA16A5869FFF797FDD2E74F2B23
:1007F00003D1A36AE26F1A70CCE7482B03D1A36A36
:10080000E26F1A80C6E7572B03D1A36AE26F1A6022
:10081000C0E7E21DD27F6F2B0ED1002A07D0A36A5A
:10082000574A043B934202D823007C33A362012140
:10083000A06AFFF797FDADE7682B0ED1A16A002AE9
:1008400009D04F4A0B1F934205D800232000E367CD
:100850007C300221EDE70B88F8E7772B0ED1A16AF7
:10086000002A09D0464A0B1F934205D800232000D6
:10087000E3677C300421DCE70B68F8E7002A19D134
:10088000472B17D1E96F72B6EFF30882384B9A60A5
:100890000A6882F308884A6810479A6882F30888D1
:1008A00062B61B7B002B00D174E7AB6906201B6886
:1008B00098476FE7542B08D10222533B23752B49ED
:1008C000A369D868FFF729FD64E74E2B0BD1237D80
:1008D000002B05D1A36902222449D868FFF71DFD2A
:1008E0000023237556E7562B1ED1AB6901222549FB
:1008F000D868FFF712FDAB69194903222031D86887
:10090000FFF70BFDAB6901221F49D868FFF705FD12
:10091000AB6913490E222431D868FFF7FEFC1B494E
:10092000AB6969671722CCE7582B0BD1002A06D197
:10093000E06FFFF7FDFCA36903221549C1E78020A2
:100940008001F6E7592B61D1E36FA66A002B23D112
:10095000074B1E61044B03229B690E49B1E7C04659
:10096000C816000000400041780000207319000004
:10097000F800002076190000FFFFFF1F0050002044
:10098000FBFFFF1F4C1900004E190000501900001A
:10099000681900006C190000002A06D08020A368A6
:1009A0008001834201D0FFF7C3FC8021454AEB6FF1
:1009B00014697A699B0852688A4379694A602A698E
:1009C0009208FA60404A9446002BC3D061467A6987
:1009D00011807A69127DD207FBD5200000223E618A
:1009E000F9683E6904008A4201D09A4208D17969C7
:1009F000364808807969097DC907FBD59B1AE3E76A
:100A0000396910C8013210C13961E9E75A2B00D0A9
:100A1000C0E6E26FA36A002699182D4A94468B42DD
:100A20001FD1A3690122D8682A49FFF776FC072362
:100A30000F223240D0B2010036093031092A00DDE0
:100A400007311822BA18D154013BF1D21821AB69F1
:100A500008227918D868FFF760FCAB6903221E49A9
:100A60002FE71878320A424060465200125A360286
:100A70005640B6B20133D2E71A00303AD1B2092952
:100A800004D8E36F1B011343E36793E61A00413A6E
:100A9000052A03D8E26F373B1201F4E71A00613AE6
:100AA000052A03D8E26F573B1201ECE700222C2BFA
:100AB00003D1E36FA362E2677CE621002C310B7067
:100AC000F9E7C046F800002044A5FFFF04A5FFFF9A
:100AD0004C1700007019000072190000F8B51A4F89
:100AE00006003B7D08001400002B12D1174B184A5A
:100AF00018491A645A6C920B92035A645A6C0A4051
:100B00005A64A22240235200B15C0B43B354012328
:100B10003B754825FF35735DDB07DB0F12D00B4AB1
:100B2000536C9B049B0C9C4202D9546CA404A40CEF
:100B30002200074900F0ACFD0123735500233B75EB
:100B40002000F8BD1C00FBE7F80000203403002063
:100B5000F4020020FF3F00F013B56B46DC1D044B90
:100B6000012221009869FFF7B9FF207816BDC04621
:100B7000F8000020F7B5009001201C4D1C005B011F
:100B800016000193EA18536910325B005B0F0333C0
:100B90009840B04221D8802350681B06034353601D
:100BA0006301ED1829616B69B1049B0B890C9B03F0
:100BB0000B436B616B690E4908340B406B61009B02
:100BC00064011C190223E3716279823B1343637150
:100BD000E3799B07FCD53000FEBD064BA701FF184B
:100BE0003200380000F054FD3900D9E7340300200A
:100BF000FF3F00F03402002010B50C000A00010095
:100C0000034801238069FFF7B5FF200010BDC046EF
:100C1000F8000020012307B5019004481A0001A93B
:100C20008069FFF7A7FF01200EBDC046F800002035
:100C300070B50500C0B0080016000C0000F031FDD2
:100C40006B464000023018706A46032376085370E2
:100C5000023B5A1EA15C5A00002901D09E4206DCCC
:100C6000002369462800FFF785FF40B070BD684645
:100C700001338152EDE7F7B5056808222900AB8BF7
:100C800006001340FF31002B27D080234020C024D2
:100C9000AA830932AB724A7088714B71B44BB54D5F
:100CA0005A68A4052A4022435A605A692A401443CC
:100CB000B14A5C611A60B14AB14C1A615A68144079
:100CC0008022920222435A605A68920B92035A6021
:100CD0000023487133713079FEBD10200A7A024238
:100CE000F9D0A54A08721778A648A74CC777577855
:100CF000A648C7779778E784D778E08C3F02074308
:100D0000E784177927855779208D3F020743278588
:100D100097799C486785D279678D1202174367855A
:100D200040279A4A4F71D27FC07F120202439848EF
:100D3000824200D1F2E026DC8020400082421CD0BA
:100D40000BDC812A04D0822A00D1BEE0802A14D193
:100D50002100A3852C3102224EE081235B009A42C0
:100D600000D12BE100DAF8E0FF33FF339A4200D1E3
:100D7000CFE0884B9A4200D1EFE02023FF35AA79DB
:100D80001343AB71A7E7902109018A426CD017DCAD
:100D9000D021C9008A4222D0882109018A4200D18B
:100DA00090E0A023DB009A42E7D12800FFF768FB20
:100DB0008023E28C5B4213433268DBB293728AE792
:100DC000754B9A4200D1C8E0D7DD744B9A4200D1EE
:100DD00052E1734B9A42D0D1E38C7371BDE0E38C46
:100DE0001B0A012B0CD11222638D934201D8628D14
:100DF00092B200236B4934312800FFF7BBFE6AE74B
:100E0000E38C1B0A022B09D14322638D934201D844
:100E1000628D92B2644900230431EDE7E38C1B0A32
:100E2000032BAAD1E38CDBB2012B16D0002B05D00B
:100E3000022BA2D1628D5D49D2B211E05949042240
:100E4000463101A800F024FC0422638D934201D8AE
:100E5000628D92B2002301A9CEE7628D5449D2B2CD
:100E60002800FFF7E5FE36E7E38C28003371FFF733
:100E700007FBA0230322C0215B00EA543C4B3D4802
:100E80005A6C890502400A435A644622FF32AF5425
:100E9000484A30241A6490225200AC545A6B0240E3
:100EA00011439222596380215200A954424A1A6385
:100EB000B0225200AF545A6F10405867B2235B0003
:100EC000E95408E7311D012296E75022A385238DBE
:100ED0000F20134022002E321370238D03402385F0
:100EE000238D032B15D81378002B0BD0238D0833BB
:100EF0005B01EB189B799B062100DB0FA3852C314E
:100F0000002328E7238D08335B01EB189B79DB0670
:100F1000F2E720238A7913438B71DCE68022238D4C
:100F20000F21134022002E321370238D0B40238596
:100F3000E38C002B00D020E7238D002B00D11CE791
:100F4000238D032B00D918E71378002B09D020221A
:100F5000238D08335B01EB185A712800FFF790FAD4
:100F6000B9E6238D102208335B01EB18F4E7C04685
:100F700034030020FFFFFF8FB40200203402002062
:100F8000FF3F00F0FD000020F8000020FE000020E0
:100F9000020300000103000021200000A121000045
:100FA00021220000C8160000000000208419000063
:100FB00078190000F4020020740200208022238DA2
:100FC000134022002E3213700F22238D13402385ED
:100FD000E38C002B00D0D0E6238D002B00D1CCE693
:100FE000238D032B00D9C8E623002E331B78002B5A
:100FF00020D0238D08335B01EB189B799B06ACD581
:10100000238D113208335B01EB181A71238D0833DD
:101010005B01EB18DB795B069FD5238D203208330B
:101020005B01EB18DA71238D3E3A08335B01EB1854
:101030001A7192E7238D08335B01EB189B79DB066D
:1010400000D48AE71022238D08335B01EB181A7154
:10105000238D08335B01EB18DB799B0600D47CE71A
:10106000238D921808335B01EB18DA71238D1F3A38
:1010700008335B01EB18DBE70822638D934201D84C
:10108000628D92B2014900234831B5E6000000208C
:10109000F8B50B4F0600380018300D00FFF7EBFDD8
:1010A0002C00002808D1050008E022003100B869B2
:1010B000FFF714FD241A3618002CF6D12800F8BDCD
:1010C000F800002070B5084C0500200018300E0014
:1010D000FFF7D1FD03000020834204D03200290035
:1010E000A069FFF7FBFC70BDF800002010B5084CAC
:1010F00020001830FFF7BFFD03000020834205D019
:101100004823A269FF33D05CC007C00F10BDC046A2
:10111000F80000200D4A0E4870B5824206D10D4AF3
:101120000D4B002193420DD100F01AF80B4C002317
:101130009442F4D0D1188842F1D9E55804330D60B7
:10114000F8E702C39342FCD3EEE7C046000000205C
:101150005C000020B40300205C000020A019000007
:10116000F0B50C4B85B01B6800AFFB60013321D09C
:10117000094B0A490B63074BD8B200281AD1084B18
:10118000084A1B78DB07DB0F0ED0106001233431D7
:101190000B700FE00020000004200000F800002089
:1011A00038040040FC7F00201468DF48844200D0EF
:1011B0003CE213601E210225DC4ADD4C53688B4360
:1011C0002B435360DB4BA382A38A2B43A382E368A8
:1011D0002B42FCD00123D84EB360FFF749F9D74B1F
:1011E0007360FFF745F98223DB0173808026FFF7E8
:1011F0003FF9A38CB343A384FFF732F9D04BE362EA
:10120000FFF72EF9A28CCF4B1343A384FFF728F9E5
:10121000A38C1D43C84BA584FB604023E268324287
:10122000FCD0E2681A42F9D00024FFF719F9FB68F4
:101230009C60FFF71DF9FA68C34B5360FFF718F97C
:10124000C020C249C24BC34A4B60136A00061B024E
:101250001B0A0343136207238C600B6062B6BE4B0C
:10126000F9684B807A60FB685B785BB2002BFADB35
:101270000423BA4EBA4C326A134333620123226804
:10128000134323602368DB07FCD4E369DB07F9D44D
:101290001423FF222360E36893431A00EF231343D0
:1012A000E3600223226813432360E3699B07FCD4B5
:1012B0003022638B93431A00102313436383E36943
:1012C0005B07DB0FBB60FAD101250F200221A54A85
:1012D00013782B431370A44B1A7882431A701A7830
:1012E0000A431A70A14A1178294311701A780240F2
:1012F0001A70202219780A380A431A70FFF766F923
:1013000000283BD0CE2101400520FFF74DF92800F1
:10131000FFF75CF930239843C1B22800FFF744F986
:10132000B868FFF753F9782301009943483B0B4312
:10133000D9B2B868FFF738F9B868FFF747F907215D
:101340000143C9B2B868FFF72FF90220FFF73EF951
:10135000010002202940FFF727F90420FFF736F9A2
:1013600003210140982001439438FFF71DF9022220
:10137000236893432360E3699B07FCD47C4D2B00D7
:1013800034331B78002B0CD07A4B1B6883F308880E
:10139000FF23784A9A4313007A6893602B6B1B688B
:1013A000184701230F2074490A781A430A70734AB8
:1013B0001178814311700321147821431170704911
:1013C0000C7823430B70137803401370302311788B
:1013D0000B4313708023326A13433362FA68694BFC
:1013E0005380FB685B785BB2002BFADB664A130024
:1013F000D1698907FCD40220116881431160DA6940
:10140000D207FCD4012219680A431A601A68D2076D
:10141000FCD4DA69D207FCD4DA699207F9D45B4AC2
:101420001A60DA695207FCD4C02292025A60584A04
:101430009A81DA699207D20FFBD102211868014321
:1014400019602B0035331A702B0036331A702B00BD
:1014500037331A702B0038331A702B0039331A7057
:101460004C4B0F201A702023F2694B491343012281
:10147000F3610B7813430B70484B19788143197053
:1014800006211C782143197045490C7822430A70C3
:101490001A7802401A70602219780A431A70264B93
:1014A000404A5A805A7852B2002AFBDB01233E4C54
:1014B000227813432370A378DB07FCD41F213B4A17
:1014C00013685B0B0B408B4200D10523208D384EF7
:1014D0000B409B0130400343238513689B0C0B405A
:1014E0001F2B00D1023B1F200726218D0340814383
:1014F0000B4323851368DB0D3340B34200D1032334
:10150000228D2C4933400A401B0313437F2223853D
:1015100023782948134023700423227800211343A1
:101520000C2223704AE0C046358173070040004119
:10153000000800400C060000000C004001050100FE
:10154000B805FF7D040A00000007030010E000E07A
:10155000E703000000ED00E014400000000400403C
:1015600000080042484400413444004149440041DD
:10157000F800002000200000D6440041BB44004198
:10158000D744004119400000001C004204003140D3
:101590002AF6FFFF78000020584400413C440041F7
:1015A0005944004106400000005000412460800082
:1015B0003FF8FFFFFF8FFFFF3403002060622389A5
:1015C0009343238123890B3A934323817F3200F095
:1015D00057F80021224BAC612B620223A9832278A9
:1015E0002048134380222370C0241F4B52039A606B
:1015F0001E4A1F4B24065360036A1B021B0A234327
:1016000003629160166001262C003A3428002B6A90
:1016100018309847002800D026702378002B0CD073
:10162000144B154A4C339361FFF72AF8134B1060A3
:10163000013B002BFCD11360A8E52378002BE5D1FA
:10164000FEF722FD0028DFD0FEF726FD2328DBD1A0
:10165000084B094A6833936101232B73E4E7C046C2
:10166000770C000000ED00E00044004110E000E0D5
:10167000E7030000C81600007800002048E80100D9
:1016800003001218934200D1704719700133F9E733
:10169000002310B59A4200D110BDCC5CC454013374
:1016A000F8E70023C25C0133002AFBD1581E7047C3
:1016B000F8B5C046F8BC08BC9E467047F8B5C046B1
:1016C000F8BC08BC9E4670470800000010000000EF
:1016D0002000000040000000800000000001000029
:1016E0000002000000040000322E30005B417264F2
:1016F00075696E6F3A58595A505D00001201000228
:1017000002000040412352000002010200010403D4
:1017100009040000150C0000590B0000ED1000003A
:10172000F90B0000C5100000F90B0000911000003B
:101730002F01000099000000890000000103000053
:10174000210100000D0200004501000000002110F1
:10175000422063308440A550C660E770088129911B
:101760004AA16BB18CC1ADD1CEE1EFF131121002C3
:1017700073325222B5529442F772D662399318836B
:101780007BB35AA3BDD39CC3FFF3DEE3622443348F
:1017900020040114E664C774A44485546AA54BB5BB
:1017A00028850995EEE5CFF5ACC58DD55336722663
:1017B00011163006D776F6669556B4465BB77AA70B
:1017C00019973887DFF7FEE79DD7BCC7C448E558AF
:1017D0008668A7784008611802282338CCC9EDD95B
:1017E0008EE9AFF9488969990AA92BB9F55AD44A03
:1017F000B77A966A711A500A333A122AFDDBDCCBAB
:10180000BFFB9EEB799B588B3BBB1AABA66C877CCE
:10181000E44CC55C222C033C600C411CAEED8FFDFA
:10182000ECCDCDDD2AAD0BBD688D499D977EB66EA2
:10183000D55EF44E133E322E511E700E9FFFBEEF4A
:10184000DDDFFCCF1BBF3AAF599F788F8891A9810C
:10185000CAB1EBA10CD12DC14EF16FE18010A100F6
:10186000C230E3200450254046706760B9839893E6
:10187000FBA3DAB33DC31CD37FE35EF3B102901246
:10188000F322D2323542145277625672EAB5CBA5B2
:10189000A89589856EF54FE52CD50DC5E234C32496
:1018A000A01481046674476424540544DBA7FAB786
:1018B0009987B8975FE77EF71DC73CD7D326F236E6
:1018C0009106B01657667676154634564CD96DC9D2
:1018D0000EF92FE9C899E9898AB9ABA94458654836
:1018E00006782768C018E1088238A3287DCB5CDB26
:1018F0003FEB1EFBF98BD89BBBAB9ABB754A545A86
:10190000376A167AF10AD01AB32A923A2EFD0FEDF1
:101910006CDD4DCDAABD8BADE89DC98D267C076CD5
:10192000645C454CA23C832CE01CC10C1FEF3EFFC5
:101930005DCF7CDF9BAFBABFD98FF89F176E367E25
:10194000554E745E932EB23ED10EF01E76002000EE
:10195000204D617920313620323032312031313A18
:1019600034373A34300A0D00580A0D00590A0D0078
:101970005A00230A0D003E0041726475696E6F20A3
:101980004C4C430041726475696E6F204D4B522080
:1019900047534D203134303000000000000000007B
:1019A0000114000009024300020100803209040012
:1019B00000010202000005240010010424020005B9
:1019C000240600010524010001070583030800FF28
:1019D00009040100020A000000070581024000001E
:1019E000070502024000000000C2010000000800DC
:0C19F00001000000690000004100000040
:0400000300001115D3
:00000001FF
