:10000000007C0020BD160000CD010000C9010000E9
:1000100000000000000000000000000000000000E0
:10002000000000000000000000000000C50100000A
:100030000000000000000000C101000045010000B8
:1000400010B5064C2378002B07D1054B002B02D0AE
:10005000044800E000BF0123237010BD60000020B1
:10006000000000007C1F0000044B10B5002B03D0E3
:100070000349044800E000BF10BDC0460000000076
:10008000640000207C1F0000030010B50800110070
:1000900098476422014B1A8010BDC0467C000020A6
:1000A000094B30B599685860DB68084A084C9B00DA
:1000B000814200D830BD4508D5611480157DED071B
:1000C000FCD5C018F4E7C0467C0000200040004189
:1000D00002A5FFFFF0B5194B0A00197C85B05C69D9
:1000E000002929D0042A1FD100680F26302752008A
:1000F00004AB9B180B3B9D1A01003140092919D80C
:1001000039431970013B00099D42F5D10A200C4B7F
:1001100001A90B808B1898700330D8700432E06806
:10012000FFF7B2FF05B0F0BD022A01D10088DCE77D
:100130000078DAE73731E4E70100F0E77C000020DF
:10014000307800001B4A1C4B117E002908D1197819
:10015000587809188020C9B25970184940000860C1
:10016000117E0131C9B211765978F02902D8597837
:10017000092908D81978494249B21970197858786C
:100180000918C9B25970117E5B78994203D1802158
:100190000A4B490019601388002B03D01388013BD8
:1001A0009BB21380538B002B03D0538B013B9BB22C
:1001B000538370477C000020000000209C440041D5
:1001C00002BEFEE705BEFEE70DBEFEE70EBEFEE781
:1001D00010230249CA681A42FCD070470008004048
:1001E000024A53785BB2002BFBDB7047000C0040E7
:1001F000074AFF3053699B0B9B0353610223037231
:100200008279823B13438371037A9B07FCD5704745
:1002100038020020802102000A4BC90100280ED0BC
:1002200099618021890199615961074B187F4000CC
:100230008018064A800080581877C0B2704759610C
:10024000EFE7C046004400417C000020A81C0000ED
:100250000C4B10B51B7F082B10D00F2B0ED001209C
:10026000FFF7D8FF0120FFF7D5FF0120FFF7D2FFEE
:100270000120FFF7CFFF0120FFF7CCFF0020FFF7A1
:10028000C9FF10BD7C0000200D4B10B51B7F0F2B4C
:100290000AD0082B08D00124A3420FD80020FFF772
:1002A000B9FF0020FFF7B6FF0120FFF7B3FF0020E2
:1002B000FFF7B0FF0020FFF7ADFF0024200010BDC6
:1002C0007C000020074B10B51B7F01240B2B06D1AF
:1002D0002000FFF79FFF2000FFF79CFF0024200075
:1002E00010BDC0467C000020F0B587B00390002010
:1002F000012604000700B4465E4001920596039B68
:100300009F4201D107B0F0BD002C04D1FF25002988
:1003100001D00D7801316246184B40081E6AF60B79
:100320001640F60130436646039A2E400496561E48
:1003300062460292BE4201D1059A0292049A002AB4
:1003400018D0802252019A61029A002A03D0802696
:10035000B6019E615E6107236D080134EDB21C4059
:1003600006D1019B002B03D01870200001330193AC
:100370000137C4E7802252015A61E5E70044004199
:10038000F7B5012462400192802200235201060049
:1003900094461800B34200D1FEBD0F4A2700156AEB
:1003A000ED0B25409D4028430D0025400095751E0E
:1003B0009D4200D1019F009D002D0AD065469561A8
:1003C000002F03D08025AD0195615561491001339F
:1003D000E0E765465561F3E700440041154B10B571
:1003E0001B7F0400012B01D9FFF732FF0020FFF72C
:1003F00011FF0120FFF70EFF0120FFF70BFF002088
:10040000FFF708FF0020FFF705FF012221000A2067
:10041000FFF7B6FF5623FF33984207D10120FFF7BD
:10042000F9FE0120FFF7F6FE002010BD012040423A
:10043000FBE7C0467C000020F7B50E4C0700631CAC
:10044000DD7FE37F0E200193FFF7C8FF061E0FDB61
:10045000FFF71AFF019B691C9940E07FA37F394396
:10046000C01801220234FFF78BFFFFF72BFFE7775D
:100470003000FEBD7C00002037B505000020124B87
:1004800001900233DB7F0C00834218D10C20FFF770
:10049000A5FFFFF7F9FE019B01A99A00032313436F
:1004A0000193002320201A00FFF71EFF00236001A4
:1004B00002301A002900FFF717FF20003EBDFFF7AA
:1004C000BBFF0028FADBE1E77C0000200222644B3E
:1004D000F0B51A708023634C8027802680251B028C
:1004E0006360002385B0AD01FF017601A7600121A3
:1004F000A66003A8A5600393FFF7BEFF80235B05FA
:10050000A3606361A761A6616561FFF7A1FE564D17
:100510002B7F012B01D9FFF79BFE0020FFF77AFE0E
:100520000120FFF777FE0120FFF774FE0020FFF7A0
:1005300071FE0020FFF76EFE012204210A20FFF762
:100540001FFF0120FFF766FE0120FFF763FE9A27D9
:10055000FFF79AFE80228023FF3752019B01013F63
:100560006261A3616361002FF9D13A003900012073
:10057000FFF706FF0400FFF7A5FEFFF769FE002C5A
:1005800003D10120404205B0F0BD0E20FFF726FF49
:10059000FFF77AFE3A0039004020FFF7F1FEFFF73F
:1005A00091FE0C20FFF71AFF08263C00FFF76CFEB7
:1005B000002204201100FFF7E3FE24090007013E9A
:1005C0000443FFF77FFEFFF743FE002EEED1FF232B
:1005D0006A1CD377AA1CD3776203520D6E2AD0D13E
:1005E00031000120E20C009313406A77AE7701934B
:1005F0003200009BF7B21A409446020063469A40CC
:10060000019B0136934227DA002900D0AF770027FB
:10061000EC776B7F9F42B4DA08260024FFF734FEA4
:10062000002204201100FFF7ABFE24090007013E61
:100630000443FFF747FEFFF70BFE002EEED1FF222B
:10064000E30C1340842B09D16403640D6E2C05D197
:100650000135EF77300096E70100C9E70137D8E7A9
:100660004F440041004400417C00002003210A4B1C
:1006700001405A680948090410400843084A586074
:10068000D8694007C00F00D17047013A002AF7D15E
:1006900001204042F8E7C04600080042FFFFFCFF8F
:1006A00052C30000F8B52C4D2C4B2900DA1CD27F28
:1006B0002B485200D4B26A8B9206920F012A04D0C2
:1006C0006A8B9206920F022A19D14A6AD20AD20282
:1006D00022434A620A7ED2071AD54A8B5207D20FAA
:1006E00010D1181DC47F01271000002C14D1002840
:1006F00001D00433DC770320FFF7B8FF06E00138B0
:10070000821CD8D10320FFF7B1FF02242000F8BDDE
:100710000138821CDED1F5E7124D134E555D357060
:10072000124D0E7EF60707D54D8B01326D0706D4AC
:10073000013CE4B23800D8E7013D002D08D1002883
:1007400001D00433DC770320FFF790FF0324DDE7BB
:100750004E8BF607E5D5F2E7000800427C0000204A
:1007600050C30000A00000202808004252C300002F
:1007700010B56B24064BDA1CD4775A1DD077693C30
:100780001A1D0633D477D977FFF78CFF200010BDF0
:100790007C0000206B2210B5274CE31CDA77231D68
:1007A0006A3ADA77631DD877FFF77CFF0023984217
:1007B00033D1E31DD8772148214A0300418B8906B4
:1007C000890F01291FD1D720596AC90AC9020143DB
:1007D0005962197E890722D55A8B52071BD40121F1
:1007E000E21DD1771A7E9207FCD5164A03201178B4
:1007F00022000832D17780225968D2020A435A6017
:10080000FFF734FF07E0418B8906890F0229DAD010
:10081000013A911CD2D10834E37F180010BD013A8F
:10082000911CF8D0197EC907D3D5C022596892020D
:100830000A435A60EFE7C0467C00002000080042EF
:1008400050C300002808004237B51A4C0190A31C81
:10085000DB7F0D00002B20D10C20FFF7BFFDFFF741
:1008600013FD019B01A99A00032313430193002365
:1008700020201A000234FFF737FDE37F012B12D14D
:100880000C20FFF7ABFDFFF7FFFC002320202A0020
:100890001900FFF729FD002004E00020FFF7CCFD40
:1008A0000028D9DA3EBD0120FFF7C6FD0028F9DB9C
:1008B000E6E7C0467C00002013B50C00FFF7DCFD26
:1008C0000190A04215D180220C4B52050C4C9A612C
:1008D0005A61013C002C0FD001A90020FFF7B4FFA2
:1008E000019B002BF5D101A90120FFF7ADFF019875
:1008F00016BD0A204042FBE70120FBE7004400410F
:10090000EA030000F0B5124C0D00A544114B019014
:10091000029168460321160000930227FFF7CCFFDF
:10092000EC1CA4080134B90038006944FFF78CFFBF
:100930007B1E01379C42F6DC00231A006A44127BBE
:10094000F2540133AB42F8D1034B9D44F0BDC04695
:10095000FCFBFFFF0500000104040000F8B51C4D7E
:1009600007000800290028310B781400002B12D151
:10097000184B194A194E1A645A6C920B92035A6416
:100980005A6C32405A64A22240235200BE5C334368
:10099000BB5401230B704826FF36BB5DDB07DB0F22
:1009A00013D00C4A536C9B049B0C9C4202D9546C90
:1009B000A404A40C2200084901F025F90123BB5529
:1009C000002328352B702000F8BD1C00FBE7C04633
:1009D0007C00002038020020F8010020FF3F00F0DA
:1009E00013B56B46DC1D044B01222100D86AFFF7CA
:1009F000B5FF207816BDC0467C000020F7B50090FA
:100A000001201C4D1C005B0116000193EA1853697C
:100A100010325B005B0F03339840B04221D8802333
:100A200050681B06034353606301ED1829616B692D
:100A3000B1049B0B890C9B030B436B616B690E49E3
:100A400008340B406B61009B64011C190223E371A5
:100A50006279823B13436371E3799B07FCD53000D5
:100A6000FEBD064BA701FF183200380001F0CBF89D
:100A70003900D9E738020020FF3F00F0380100209C
:100A800010B50C000A00010003480123C06AFFF7FB
:100A9000B5FF200010BDC0467C000020012307B533
:100AA000019004481A0001A9C06AFFF7A7FF0120BE
:100AB0000EBDC0467C00002010B50B4C0B4BA5446E
:100AC0000C000190110003A822000093029401F091
:100AD0009AF8E11C890803316846FFF7EDFE802390
:100AE000DB009D4410BDC04600FCFFFF0400000178
:100AF000F0B5B14BB14CB0485B69A54400AF38309C
:100B00001B6940219847002802D06423AA4A5383D6
:100B1000A94BA94A98673833D3670023A84A1360C2
:100B2000A54BA74C9B6FFB60FA682368934200D3E8
:100B30007EE1A14BDB6FFB601B78FF2B59D0232B91
:100B400000D027E39C4B1B7C002B06D09A4B022243
:100B50005B699C49D868FFF797FA2379532B55D1E5
:100B6000954B25689B6FAB421BD99349A268C96F0F
:100B700001354E1CF96090492560CE675B1B93429E
:100B800042D2E360E36831001A002069FB6001F0A3
:100B90003AF8FB68ED18F618874B2560DE673B7B5B
:100BA00023752368844A013B2360834BA168DB6F74
:100BB000FB60013BD367237D8B4209D2C91A53697D
:100BC00020699B699847002802D064237A4A53839E
:100BD000C0467A227A4B1A7100229A60764B1B7CAF
:100BE000934206D0744B01325B697749D868FFF7AE
:100BF0004BFA734A1368013313606F4B6E4ADB6F15
:100C0000FB600133D3678BE7E260BBE7522B10D167
:100C1000637D002B05D06D4B22699A4201D86C4B45
:100C20002361654BA2685B6921695869FFF72CFA5B
:100C3000CFE74F2B03D12369A2681A70C9E7482B6D
:100C400003D12369A2681A80C3E7572B03D1236914
:100C5000A2681A60BDE7627D6F2B0ED1002A07D013
:100C600023695C4A043B934202D823000833236182
:100C700001212069FFF72EFAABE7682B0ED121691D
:100C8000002A09D0534A0B1F934205D800232000A5
:100C9000A36008300221EDE70B88F8E7772B0ED12F
:100CA0002169002A09D04B4A0B1F934205D8002323
:100CB0002000A36008300421DCE70B68F8E7002A75
:100CC0001CD1472B1AD13E4B9B6872B6EFF30882BA
:100CD0003B498A611A6882F308885B6818478B6908
:100CE00083F3088862B6364B1B7F002B00D170E778
:100CF000314B06205B691B6898476AE7542B09D182
:100D00002D4A533B1374536902222E49D868FFF7CA
:100D1000BBF95EE74E2B0ED1274B1B7C002B06D177
:100D2000254B02225B692749D868FFF7ADF90023FC
:100D3000214A13744DE7562B22D11F4B01225B69C8
:100D40002549D868FFF7A0F91B4B244C5B690322A7
:100D50002100D868FFF798F9174B01225B692049F9
:100D6000D868FFF791F9144B211D5B690E22D868F2
:100D7000FFF78AF9104B1B491722D9675B69C5E752
:100D8000582B0CD1002A07D1A068FFF789F90A4B2C
:100D900003225B691449B9E780208001F5E7592BEC
:100DA00000D06BE1A3682569002B21D12562024B9D
:100DB00003225B690D49A9E77C0000205CEFFFFF7F
:100DC000FC000020531F0000561F0000FFFFFF1F04
:100DD00000500020FBFFFF1F281F0000401C0000E8
:100DE0002A1F00002C1F0000441F00004C1F0000A1
:100DF000002A08D08020D24B80015B68FB608342D0
:100E000001D0FFF74DF9A3689B08BB60236AFB6024
:100E10008023DB029D4200D0C8E0FFF757FB051E90
:100E20000AD0C74B03225B69C649D868FFF72CF983
:100E3000BD46C54B9D44F0BD10232C00FE1832006A
:100E40009021C248FFF75EFDFB687E600833C04E0C
:100E50003B60FB681B1919001A002D312C320978F0
:100E60001278090211431A002E321278120411432B
:100E70001A002F32127812060A4352D05A78197883
:100E8000120211439A78DB7812040A431B061343BB
:100E9000AF4A53600122AF4B0533DA770024FB6879
:100EA00019190A000B002932283312781B78120214
:100EB0001A430B002A331B781B041A430B002B33F5
:100EC0001B781B061343013305D01023FB18181998
:100ED000302200F098FE3034902CE0D11021902286
:100EE0009D4B7918891810200B6094210223381823
:100EF000411810200B60FF239821381841185B031C
:100F00000B6080180321FFF7D7FC7134FF34BB68F6
:100F1000AB423ED810239021FA188C48FFF7CCFD45
:100F200045E77A6818001219916A1A0029302832A8
:100F300000781278000210431A002A321278120444
:100F400010431A002B32127812060243914201D04C
:100F50004A1C19D15A781978120211439A78DB7811
:100F600012040A431B0613437268934200D2736053
:100F70003B681020191908233818C31820221819A3
:100F800000F032FE002885D13034902C00D060E78C
:100F900084E7FF23DB02E818704B8000C218FB686F
:100FA00021009A18FFF788FD8035B0E76C4B9D4211
:100FB0003AD90534E37F002B00D1F8E6644B5C6836
:100FC000684BE4186419A3B2002B12D110219022AF
:100FD000614B7918891810200B609421022338186E
:100FE00041180B609633C318032180181C60FFF76B
:100FF00063FCBB6880267F33DB095A028023200014
:101000009B00E318D318BB60B60080239B00C51873
:10101000BB68AB4200D1CAE6FB6831001A18121B4C
:10102000FFF74AFD2800F0E780214F4B4F4E5A68EA
:101030008A435A60424AD2687A6092089446BA68F3
:10104000002A00D1B3E61E801A7DD207FCD5280005
:101050000022F9680500F960944502D0BC6894420A
:1010600008D143491980197DC907FCD5B9688A1A86
:10107000BA60E4E720C9013220C0EBE75A2B00D068
:10108000A7E58023A5682469DB029C423FD1802626
:10109000002476000CE010229023BA18D3181A19F5
:1010A000FF235B03E0183100FFF72CFC0134FF3411
:1010B000A542F0D810229023BA18D41800262D4A41
:1010C0006519AC425CD11E4B01225B692A49D86884
:1010D000FEF7DAFF0F24072332002240D0B20100CE
:1010E00036093031092A00DD07311022BA18D154EF
:1010F000013BF1D21021124B08225B697918D868A4
:10110000FEF7C2FF0E4B03225B691C49FEE5144B40
:101110009C42D3D9002610E0102290238021BA18D7
:10112000D3189A190A4B490058680E4BC01820185A
:101130008019FFF7E7FB0136FF36AE42ECD3B9E783
:101140007C000020481F0000A410000000F01F00D9
:1011500000000020FC000020030000010020E0FF50
:10116000FF0F040000F0FBFF0040004144A5FFFF1B
:1011700004A5FFFF281D0000501F0000521F0000A3
:101180002178330A4B405B0031029E5A01344E40B5
:10119000B6B296E71A00303AD1B2092904D8A3684A
:1011A0001B011343A36024E51A00413A052A03D822
:1011B000A268373B1201F4E71A00613A052A03D806
:1011C000A268573B1201ECE700222C2B03D1A36845
:1011D0002361A2600DE52371FBE770B50500C0B087
:1011E000080016000C0000F017FD6B4640000230AE
:1011F00018706A46032376085370023B5A1EA15C9E
:101200005A00002901D09E4206DC002369462800CE
:10121000FFF7F4FB40B070BD684601338152EDE743
:10122000F7B5056808222900AB8B06001340FF3193
:10123000002B27D080234020C024AA830932AB7220
:101240004A7088714B71B44BB44D5A68A4052A405A
:1012500022435A605A692A401443B14A5C611A60B9
:10126000B04AB14C1A615A6814408022920222435B
:101270005A605A68920B92035A6000234871337186
:101280003079FEBD10200A7A0242F9D0A44A0872D1
:101290001778A648A64CC7775778A648C777977897
:1012A0002785D778208D3F020743278517796785E3
:1012B0005779608D3F020743678597799B48A785DB
:1012C000D279A78D12021743A7854027994A4F71FB
:1012D000D27FC07F120202439748824200D1F2E0DF
:1012E00026DC8020400082421CD00BDC812A04D006
:1012F000822A00D1BEE0802A14D12100E3852E315C
:1013000002224EE081235B009A4200D12AE100DAFA
:10131000F8E0FF33FF339A4200D1CFE0874B9A4287
:1013200000D1EFE02023FF35AA791343AB71A7E783
:10133000902109018A426CD017DCD021C9008A4271
:1013400022D0882109018A4200D190E0A023DB004D
:101350009A42E7D12800FEF74BFF8023228D5B42A3
:1013600013433268DBB293728AE7754B9A4200D11D
:10137000C8E0D7DD734B9A4200D151E1724B9A42DB
:10138000D0D1238D7371BDE0238D1B0A012B0CD1AD
:101390001222A38D934201D8A28D92B200236B49F1
:1013A00014312800FFF72AFB6AE7238D1B0A022B62
:1013B00009D14322A38D934201D8A28D92B26449F0
:1013C00000230831EDE7238D1B0A032BAAD1238DBF
:1013D000DBB2012B16D0002B05D0022BA2D1A28D9F
:1013E0005C49D2B211E059490422263101A800F02B
:1013F0000AFC0422A38D934201D8A28D92B200234D
:1014000001A9CEE7A28D5449D2B22800FFF7E5FE2C
:1014100036E7238D28003371FEF7EAFEA02303226E
:10142000C0215B00EA543C4B3C485A6C89050240A1
:101430000A435A644622FF32AF54484A30241A64A1
:1014400090225200AC545A6B0240114392225963CD
:1014500080215200A954424A1A63B0225200AF546C
:101460005A6F10405867B2235B00E95408E7311DFA
:10147000012296E75022E385638D0F20134022005E
:1014800030321370638D03406385638D032B15D851
:101490001378002B0BD0638D08335B01EB189B791D
:1014A0009B062100DB0FE3852E31002328E7638DA7
:1014B00008335B01EB189B79DB06F2E720238A797E
:1014C00013438B71DCE68022638D0F2113402200D1
:1014D00030321370638D0B406385238D002B00D059
:1014E00020E7638D002B00D11CE7638D032B00D90F
:1014F00018E71378002B09D02022638D08335B0195
:10150000EB185A712800FEF773FEB9E6638D1022BE
:1015100008335B01EB18F4E738020020FFFFFF8F70
:10152000B801002038010020FF3F00F00201002038
:10153000FC00002003010020020300000103000062
:1015400021200000A121000021220000401C0000F9
:1015500000000020641F0000581F0000F801002058
:10156000780100208022638D1340220030321370F6
:101570000F22638D13406385238D002B00D0D1E6AD
:10158000638D002B00D1CDE6638D032B00D9C9E616
:10159000230030331B78002B20D0638D08335B0190
:1015A000EB189B799B06ADD5638D113208335B0137
:1015B000EB181A71638D08335B01EB18DB795B065E
:1015C000A0D5638D203208335B01EB18DA71638D8F
:1015D0003E3A08335B01EB181A7193E7638D0833C9
:1015E0005B01EB189B79DB0600D48BE71022638D3F
:1015F00008335B01EB181A71638D08335B01EB183C
:10160000DB799B0600D47DE7638D921808335B017C
:10161000EB18DA71638D1F3A08335B01EB18DBE7D7
:101620000822A38D934201D8A28D92B201490023D2
:101630004C31B6E600000020F8B50B4F060038002C
:101640002C300D00FFF7ECFD2C00002808D1050020
:1016500008E022003100F86AFFF780F9241A3618F2
:10166000002CF6D12800F8BD7C00002070B5084C95
:10167000050020002C300E00FFF7D2FD03000020F3
:10168000834204D032002900E06AFFF767F970BD99
:101690007C00002010B5084C20002C30FFF7C0FD66
:1016A00003000020834205D04823E26AFF33D05C68
:1016B000C007C00F10BDC0467C0000200D4A0E4878
:1016C00070B5824206D10D4A0D4B002193420DD1D7
:1016D00000F01AF80B4C00239442F4D0D118884241
:1016E000F1D9E55804330D60F8E702C39342FCD307
:1016F000EEE7C0460000002060000020B802002095
:1017000060000020801F0000F0B50C4B91B01B68FA
:1017100000AFFB61013321D0094B0A494B63074BF2
:10172000D8B200281AD1084B084A1B78DB07DB0F18
:101730000ED01060012338310B700FE00020000044
:1017400004200000FC00002038040040FC7F002042
:101750001468E148844200D02CE213601E21022567
:10176000DE4ADF4C53688B432B435360DD4BA3822F
:10177000A38A2B43A382BA61E3682B42FCD00123E6
:10178000D94EB360FEF72CFDD84B7360FEF728FDF1
:101790008223DB0173808026FEF722FDA38CB343F6
:1017A000A384FEF715FDD24BE362FEF711FDA28C78
:1017B000D04B1343A384FEF70BFDA38C1D43CA4BF0
:1017C000A584FB614023E2683242FCD0E2681A4201
:1017D000F9D00025C026FEF7FBFCFB69C64C9D60D6
:1017E000FEF7FEFCFB6936065C60FEF7F9FCC34AB7
:1017F000C348C44950600B6A1B021B0A33430B6287
:1018000007239560136062B6BF4BFD696B80BC60B7
:101810007A6178603961FB695B785BB2002BFADB37
:101820000422BA4BBA4C196A0A431A62012221688F
:101830000A432260FB602368DB07FCD4E369DB0713
:10184000F9D41423FF222360E36893431A00EF23A3
:101850001343E3600223226813432360E3699B0779
:10186000FCD43022638B93431A0010231343638309
:10187000E5696D07ED0FFBD101260F200221A54A76
:10188000137833431370A44B1A7882431A701A7872
:101890000A431A70A14A1178314311701A78024034
:1018A0001A70202219780A380A431A70FEF772FF5C
:1018B00000283BD0CE2101400520FEF759FF300023
:1018C000FEF768FF30239843C1B23000FEF750FFA7
:1018D0002800FEF75FFF782301009943483B0B4344
:1018E000D9B22800FEF744FF2800FEF753FF072176
:1018F0000143C9B22800FEF73BFF0220FEF74AFF72
:10190000010002203140FEF733FF0420FEF742FFC2
:1019100003210140982001439438FEF729FF022259
:10192000236893432360E3699B07FCD40F227C491F
:1019300001240B781A40702313437A4A0B701378F2
:10194000234313708023FA695B0093608023BA6895
:101950001B031343FA695360FEF7B8FD20232100EF
:10196000F8183C62FEF7A8FF000EB02804D0200053
:10197000FEF734FDFEF788FC6B4D2B0038331B78E7
:10198000002B0CD0694B1B6883F30888FF23674A40
:101990009A4313003A6993606B6B1B681847FB68A6
:1019A0006349DA6920231343FA68D36101230A7873
:1019B0001A430A700F215F4A10788843107006207E
:1019C0001478204310705C48047823430370137824
:1019D0000B401370602311780B431370574BFA6957
:1019E0005380FB695B785BB2002BFADB0123544C1C
:1019F000227813432370A378DB07FCD41F21514ABC
:101A000013685B0B0B408B4200D10523208D4E4E9B
:101A10000B409B0130400343238513689B0C0B4014
:101A20001F2B00D1023B1F20218D034081430B431C
:101A3000238513680722DB0D1340FA61934200D11E
:101A40000323F969228D0B4040491B030A401343CD
:101A50007F22238523783E48134023700423227875
:101A6000002113430C222370606223899343238156
:101A700023890B3A934323817F3200F0ADF8002293
:101A8000344E354BF46273630223328621780B4364
:101A900080212370314B490019607B6979682C00E3
:101AA0005960C0213B6909061B6A39341B021B0AB5
:101AB0000B4339690B627B699A607B69FA691A602A
:101AC0000123FB613000736B2C309847002847D00E
:101AD0003B7F237044E0C0463581730700400041DE
:101AE000000800400C060000000C00400105010049
:101AF000B805FF7D040A00000007030010E000E0C5
:101B0000E703000000ED00E0144000000004004086
:101B10000008004248440041344400414944004127
:101B20003D4400415B440041FC00002000200000D7
:101B3000584400413C4400415944004106400000E3
:101B400000500041246080003FF8FFFFFF8FFFFF3F
:101B5000380200207C00002021120000884400414F
:101B60002378002BAED0194B1A002C327261202240
:101B70004833BA1813CB13C213CB13C203CB03C21F
:101B80002022BB69BA189B685B035B0F9B00D3588C
:101B9000BA69F360926892B25343B360BB691B8B1E
:101BA000DB05DB0F6B7500232B617A332B71FEF79E
:101BB0009FFFFCE7064B013B002BFCD1054B10605F
:101BC000013B002BFCD11360B4E5C046401C000073
:101BD000C409000048E8010003001218934200D134
:101BE000704719700133F9E730B50024A24201D1E2
:101BF000002005E0035D651C0C5DA34201D0181BAD
:101C000030BD2C00F2E7002310B59A4200D110BD80
:101C1000CC5CC4540133F8E70023C25C0133002AD2
:101C2000FBD1581E70470000F8B5C046F8BC08BC90
:101C30009E467047F8B5C046F8BC08BC9E46704743
:101C4000322E30005B41726475696E6F3A58595A92
:101C5000505D0000120100020200004041235600C6
:101C60000002010200010403090400009D0A0000B3
:101C7000E109000095160000810A00006D160000C1
:101C8000810A000039160000080000001000000062
:101C90002000000040000000800000000001000063
:101CA000000200000004000001000000000000002D
:101CB0000100000009000000030000000000000017
:101CC0000400000005000000040000000500000002
:101CD00006000000080000000600000007000000E9
:101CE00004000000080000000100000009000000DE
:101CF0000A000000020000000B0000000C000000C1
:101D00000B0000000C0000000D0000000F000000A0
:101D10000D0000000E0000000B0000000F0000008E
:101D20000100000009000000000021104220633083
:101D30008440A550C660E770088129914AA16BB123
:101D40008CC1ADD1CEE1EFF13112100273325222CB
:101D5000B5529442F772D662399318837BB35AA373
:101D6000BDD39CC3FFF3DEE362244334200401149B
:101D7000E664C774A44485546AA54BB528850995C3
:101D8000EEE5CFF5ACC58DD553367226111630066B
:101D9000D776F6669556B4465BB77AA71997388713
:101DA000DFF7FEE79DD7BCC7C448E5588668A7782B
:101DB0004008611802282338CCC9EDD98EE9AFF963
:101DC000488969990AA92BB9F55AD44AB77A966A0B
:101DD000711A500A333A122AFDDBDCCBBFFB9EEBB3
:101DE000799B588B3BBB1AABA66C877CE44CC55CDB
:101DF000222C033C600C411CAEED8FFDECCDCDDD03
:101E00002AAD0BBD688D499D977EB66ED55EF44EAA
:101E1000133E322E511E700E9FFFBEEFDDDFFCCF52
:101E20001BBF3AAF599F788F8891A981CAB1EBA1A6
:101E30000CD12DC14EF16FE18010A100C230E32022
:101E40000450254046706760B9839893FBA3DAB3CA
:101E50003DC31CD37FE35EF3B1029012F322D23272
:101E60003542145277625672EAB5CBA5A89589859A
:101E70006EF54FE52CD50DC5E234C324A0148104C2
:101E80006674476424540544DBA7FAB79987B8976A
:101E90005FE77EF71DC73CD7D326F2369106B01612
:101EA00057667676154634564CD96DC90EF92FE92A
:101EB000C899E9898AB9ABA9445865480678276862
:101EC000C018E1088238A3287DCB5CDB3FEB1EFB0A
:101ED000F98BD89BBBAB9ABB754A545A376A167AB2
:101EE000F10AD01AB32A923A2EFD0FED6CDD4DCDDA
:101EF000AABD8BADE89DC98D267C076C645C454C02
:101F0000A23C832CE01CC10C1FEF3EFF5DCF7CDFA9
:101F10009BAFBABFD98FF89F176E367E554E745E51
:101F2000932EB23ED10EF01E76002000204D617936
:101F300020313620323032312031313A34373A34A0
:101F4000360A0D00580A0D00790A0D00590A0D00D5
:101F50005A00230A0D003E0041726475696E6F20BD
:101F60004C4C430041726475696E6F204D4B52209A
:101F70005669646F72203430303000000000000079
:101F800001140000FFFFFFFF09024300020100806F
:101F9000FA090400000102020000052400100104F7
:101FA0002402000524060001052401000107058321
:101FB000030800FF09040100020A00000007058170
:101FC00002400000070502024000000000C20100BC
:101FD000000008000100000069000000410000004E
:04000003000016BD26
:00000001FF
